:020000040000FA
:10000000683D2020890200008D0200008F02000060
:1000100000000000000000000000000000000000E0
:10002000000000000000000000000000910200003D
:100030000000000000000000930200008584000022
:1000400097020000356E0000970200009702000042
:100050008540000097020000970200009702000010
:10006000000000009702000097020000000000005E
:100070000000000097020000B18400009702000019
:10008000958400009702000097020000970200008C
:1000900097020000A984000000000000000000009A
:1000A000970200009702000000000000000000001E
:1000B0009702000000000000970200009702000075
:1000C00000F002F800F0D1F812A030C80838241867
:1000D0002D18AC4201D100F0C8F80FCCA246AB46B7
:1000E0000CA730CF2D1B083F3F197C427F1E544484
:1000F0002D090426F441641EAC4201D300F0B5F88A
:100100000126334200D0FB1A3343984754465D46DC
:10011000DFE700009C010100BC01010000000000BD
:10012000103A02D378C878C1FAD8520701D330C840
:1001300030C101D504680C60704700000000000069
:100140007047000000000000002300240025002666
:10015000103A01D378C1FBD8520700D330C100D583
:100160000B60704710B56E2902D100F0EBFC10BD9A
:10017000702902D100F027FE10BD662902D10FF0D0
:10018000C5F810BD652902D10FF0C0F810BD672970
:1001900002D10FF0BBF810BD612902D10FF0BEF8FB
:1001A00010BD03681B0A01D380231943692902D1BA
:1001B00000F092FC10BD642902D100F08DFC10BD4E
:1001C000752902D100F088FC10BD6F2902D100F022
:1001D000A5FD10BD782902D100F0E2FD10BDE9298E
:1001E00002D100F041FD10BDE42902D100F03CFD38
:1001F00010BDF52902D100F037FD10BDEF2902D165
:1002000000F098FD10BDF82902D100F0D7FD10BD17
:100210000368DB0901D380231943632902D102F06B
:1002200030FB10BD732902D102F033FB10BDE3296E
:1002300002D102F03DFB10BDF32902D102F040FBD8
:1002400010BD002010BD1FB503F0B2F8040000205F
:1002500000210EF0EBFD401C6060002000210EF03C
:10026000CFFDE0601FBD10B510BD03F079F8114659
:10027000FFF7E9FF0BF0A1F903F01EFC03B4FFF751
:10028000F2FF03BC03F0F6FE06480047FEE7FEE778
:10029000FEE7FEE7FEE7FEE703480449044A054B94
:1002A00070470000C100000068252020683D202024
:1002B000682D2020682D20200FB41CB50C0007AA43
:1002C000009007D04142A14202D30019401E01E034
:1002D0000020C043074B7B4469460190069800F01C
:1002E0004AFC0021002C01D0009A11701CBC08BCF3
:1002F00004B01847C30800000FB400B58DB010A9B2
:1003000009900B900020C04300910A9000200C90AF
:10031000074878440690074878446A4607900F9942
:1003200009A800F0E5FF0DB008BC04B018470000B4
:10033000FF0F000019100000002203098B422CD38C
:10034000030A8B4211D300239C464EE003460B4325
:100350003CD4002243088B4231D303098B421CD387
:10036000030A8B4201D394463FE0C3098B4201D379
:10037000CB01C01A524183098B4201D38B01C01AB1
:10038000524143098B4201D34B01C01A5241030928
:100390008B4201D30B01C01A5241C3088B4201D3D7
:1003A000CB00C01A524183088B4201D38B00C01A84
:1003B000524143088B4201D34B00C01A5241411AAB
:1003C00000D201465241104670475DE0CA0F00D08E
:1003D0004942031000D3404253409C460022030987
:1003E0008B422DD3030A8B4212D38901FC2212BA0D
:1003F000030A8B420CD3890192118B4208D38901E5
:1004000092118B4204D389013AD0921100E08909FC
:10041000C3098B4201D3CB01C01A524183098B42DD
:1004200001D38B01C01A524143098B4201D34B01C6
:10043000C01A524103098B4201D30B01C01A524129
:10044000C3088B4201D3CB00C01A524183088B42B0
:1004500001D38B00C01A5241D9D243088B4201D339
:100460004B00C01A5241411A00D201465241104677
:1004700063465B1001D34042002B00D549427047D0
:1004800063465B1000D3404201B50549002802DCF9
:10049000491C084000E00846C046C04602BD00BFF7
:1004A000FFFFFF7F70477047704700000246C80F8C
:1004B000C00781434B0030B54B405B009B0D20D003
:1004C0001923DB06C91801231B05994220DB0324ED
:1004D000A40704251346AB400BD3002B04D1EB0635
:1004E00013409B00E34204D4012464070023121943
:1004F0005941FF231B0599420BD2C9000143500FFC
:1005000009E0CB0204D501430803024305D00548A6
:1005100030BDFF21C905084330BD08460721090544
:10052000884330BD0000C07FF0B58B4C0F092546D5
:1005300089B0BD437BD01D092646AE43FAD00E4696
:100540005E402740F60F3E43254071D024012142F2
:10055000FBD0FF24AD19A4042D1B039501252D0507
:10056000DB02DB0AC9022B43C90A29431E01090128
:10057000040F130F050121431701880B82039143D8
:100580002D098C46A90B1E438A039543B30B9A038E
:1005900096433F09BA0B9403A74302962E467E4327
:1005A0000497B6464E19D7190C4601965443059741
:1005B0007E43371B7646BF1B3601B646BE0B361947
:1005C00000967646BC043719009C01D3641C009445
:1005D0006400002F01D001263443029E049F75431E
:1005E00066467E430496760034196E0034190094F2
:1005F000029C019E1C196643751BAE460694654617
:100600004519059C05956C43594375460891691A2F
:100610000191049E01465143A41B0491611A009C60
:100620000791E10605D061090122114302E072E061
:100630006EE06109089D00272C0A2D066918049DAB
:100640007C412A0A2D066918019D6241AC0DAD025C
:100650006D185441079A910D920255196141029A01
:10066000644658435443069B059A5A43121A131B77
:100670009A0E9B015B187A41010B0005C31851418A
:10068000220A200644195A419A4200D2491C0120EC
:100690004002814203D315230226F64302E01423CD
:1006A0000326F6432020C51AA9401746AF40DA407A
:1006B0000A4320460399D8400914731819055118A4
:1006C000039A3843D2075140AC4009D001229440EC
:1006D00006D30022401C5141002C01D140084000AB
:1006E0001E4A934212D3012203989206904207DBDE
:1006F0000520400709181A480143C012414004E090
:10070000032040070818C10FC907002009B0F0BD39
:100710000020F107FAE705180C464C4111486D42DC
:10072000A04115D394181A465A410E48644290418C
:100730000ED301204A004005824209D35A0082426A
:1007400006D35940C90F084AC90700201143DDE705
:1007500000200649DAE700000000FF07FE0700005E
:10076000FFFFFF7F0000E0FF0000F07F0000F87F48
:100770000121C9050123411842001B06D3185B0E55
:100780000AD0C1100722D206891840075242D1422E
:1007900001D5520089187047090208D50146002A80
:1007A00003D0C10FC90700207047104670474202AE
:1007B00002D0002002497047072109050143F4E7F0
:1007C0000000F87FF0B5FF252D04C609C209FF27F8
:1007D00004462E400137CB093E4348402A402B4077
:1007E0000746002A6BD0002B69D0AA4267D0AB42E3
:1007F00065D0002800DA32460125ED0529432C4357
:1008000009022002090AD21A4B0C7F24E31A434C36
:10081000000A7C44E35C7D242404121914145B0058
:10082000A218884201D3521C00E0400049420C4605
:100830005C4324115C43DB016415E318040A5C4348
:10084000C502200D0C4644436419250A5D43230369
:10085000EC0C0D46654300030019EB184C42A34213
:1008600001D35B18401CD4052018002B07D05B0077
:10087000C91804D3401C002901D1400840003F2181
:1008800089048A4209D3002A08DC1106090F04D022
:10089000032149074018C00FC007F0BD01224100E5
:1008A000120689187F2252069142F6D20521490785
:1008B000C84201D59010F0BDFF20C005F0BD002F4B
:1008C00000DA32461648AA4207D2AB4205D21902D4
:1008D000090E17D0F80FC007F0BDFF2563002D06E5
:1008E000AB42F9D84900A942F6D8AB4201D1A9429E
:1008F000F2D0A94201D1002101E061004908D005F0
:100900000843F0BD1102090EFBD0FF200243D005C1
:10091000F0BD0A460146104654E7000046EB0000D1
:100920000000C07F10B501469E240002CA15A3072F
:10093000002A02D01843002A04DBA21A002A0CDD88
:10094000D04010BD1206120E01D140004008A21A7C
:1009500003D4D04040420028F3DDFF2248001206B5
:10096000904201D9002010BDC817C043584010BDA7
:100970000102C21504D00123DB071943002A0ADB58
:100980009E239A1A02D40846D0407047FF224100A5
:100990001206914201D900207047C017C04370472A
:1009A0001F22030C02D10F2200041CD0030E01D120
:1009B0000002083A030F01D10001121F830F01D179
:1009C0008000921E002801DB4000521ED205511803
:1009D000021251181922904004D3491C002801D159
:1009E0004908490008467047C10FC90700D0404276
:1009F000012292071143D3E701218907D0E710B5FF
:100A000001F004FB006810BD10B5044601F0FEFAC9
:100A1000046010BD70B5044685690068C10601D543
:100A2000302600E02026C00707D070BD626830463F
:100A3000A1689047206A401C20626D1EF6D570BDEB
:100A400070B5044685690078C00707D170BD62683B
:100A5000A16820209047206A401C20626D1EF6D5B8
:100A600070BD09684A0501D540B27047C905FCD57B
:100A700000B2704709684A0501D5C0B27047C90580
:100A8000FCD580B2704770B50C460546012A05D0EA
:100A90002878800600D5EA69002302E0012305E0FA
:100AA0005B1C934202D2E05C0028F9D1A869E618E9
:100AB000C01AA861286AC01828622846FFF7AAFF52
:100AC00004E06A682078A968641C9047B442F8D3AF
:100AD0002846FFF7B5FF70BDF7B5002575291068EA
:100AE000009914A611D0FFF7BCFF002802DA40429B
:100AF00011A608E0009909688A0701D50FA602E04F
:100B0000490704D50EA6012501E0FFF7B3FF009FBA
:100B10000024243704E002F089FB30313955641C8D
:100B20000028F8D12B4632462146009801F0D0FA31
:100B3000FEBD0000000000002D0000002B000000A2
:100B40002000000011680268006A530501D5087092
:100B500009E0D30501D5088005E0130602D5C217C8
:100B600005C100E0086001207047000001694A1CCF
:100B700002610878704700B58FB00291002105919D
:100B8000054901937944039111460490684600F0A9
:100B900027F90FB000BD0000E5FFFFFF0CC90839C1
:100BA0009A4202D2531C0B6010707047F7B504468E
:100BB000154686B02B487844002703C83E4600906F
:100BC000019111E007986A467100415A02A802F0AB
:100BD0000CFB411C07D02178890603D5E26939183E
:100BE00091420ED83F18761C2078800602D5E06925
:100BF000B84206DDAE42E5DB07987100405A002896
:100C0000E0D1A069C01BA0612046FFF703FF154893
:100C100078445A3803C800900020019116E0410042
:100C20006A460798415A02A802F0DFFA0590401C74
:100C30000AD0002505E0626802A8A168405D9047DF
:100C40006D1C05988542F6D30498401CB042049070
:100C5000E5DB206AC01920622046FFF7F1FE09B0EB
:100C6000F0BD0000BEE90000F7B5D21D0025D20896
:100C700015A6D200F52905CA11D0002A05DA0021EF
:100C80004042914111A60A4608E0009909688B0785
:100C900001D50FA602E0490701D50EA60125114690
:100CA000009F0024243704E001F0CCF930323A559B
:100CB000641C02460A43F7D12B463246214600986F
:100CC00001F006FAFEBD0000000000002D0000004B
:100CD0002B0000002000000070B5044600212434E1
:100CE00008E05507D2086D0F303565545D072A437B
:100CF000DB08491C15461D43F3D10468002310A2EC
:100D0000250708D520252C400C4304D0C4690123B5
:100D10000CA2641EC46101F0DBF970BD10B504467D
:100D200021461068FFF7A6FE002302462046FFF783
:100D3000D3FF10BDD21DD108C9000CC9CCE70000FB
:100D40000000000030000000F8B50F4601880905DA
:100D500002D5224C7C4402E0204C7C440E340546F3
:100D60000021243508E016071209360FA65D6E54DF
:100D70001E0732431B09491C16461E43F3D1224667
:100D800004780023240705D5702F06D0002901D050
:100D90000223113201F09CF9F8BD01231032F9E76A
:100DA00070B504460D4621461068FFF763FE002328
:100DB000024629462046FFF7C7FF70BDD21DD30863
:100DC000DB000CCBC0E730B4036820241268234357
:100DD00003600823C36130BC0023B5E728E80000A6
:100DE000F3B50446002081B020622046E1688847C0
:100DF000002872D0252802D06268A168ABE0594F64
:100E000000267F442046E16888472028054608DB05
:100E1000312D06D2781920380078002801D00643F9
:100E2000F0E7B00701D5042086430020E0610746C3
:100E3000A0612A2D0AD028460CF033FF002827D0C5
:100E4000B8000019303D0090856119E00298BA00A1
:100E5000121902C8916102902046E1688847012F6B
:100E6000054617D1E06900281FDA202086431CE0E0
:100E700000980A21806948430099401930388861F8
:100E80002046E168884705460CF00BFF0028EFD1AB
:100E9000012F0AD02E2D08D12046E168884705464B
:100EA000202006437F1C022FC3DBA069002803DA41
:100EB0004042A06101200643F00701D01020864384
:100EC0006C2D0BD0682D09D04C2D3CD06A2D38D01C
:100ED000742D38D07A2D36D016E040E0E1682F46E8
:100EE00020468847B842054609D16C2F29D00120F9
:100EF0008002E168064320468847054604E06C2FDF
:100F00001DD0FF2001300643002D28D0284641384F
:100F1000192803D80120C002064320352046266048
:100F20002946029A1646FFF71DF9002810D001281D
:100F30000BD0F61DF008C0000830029055E74020A5
:100F4000E1E78020D5E70020D3E7361D02964CE785
:100F500062682846A1689047206A401C44E7206ADE
:100F6000FEBD0000A2E70000FFB51C460025ED43D2
:100F700085B00020009001909F685E68A169069886
:100F80006D1C88470290216A88470028F6D1029894
:100F9000401C0CD0032040028643002F19DD700650
:100FA00014D502982B2809D02D280FD103E000205A
:100FB000C04309B0F0BD012080020643A169069834
:100FC0006D1C88477F1E002F029002DD029830289A
:100FD00003D00798002828D024E00120A16940020E
:100FE00006436D1C06987F1E8847002F029003DD84
:100FF000782805D0582803D00798002810D011E091
:101000000798002801D010280CD10120A1694002C6
:1010100086436D1C06987F1E88470290102000E0D2
:1010200008200790C017039016E00A20F9E7012076
:10103000039B40020643079A019900987F1E00F027
:10104000E9FF029AD3178018594101910090A169D4
:1010500006986D1C88470290002F06DD07990298BC
:1010600001F032FC00280290E1DAE1690698884735
:10107000B00502D40120C0439BE7F00710D17006F1
:1010800010D5700505D50098019B002241429A4178
:1010900001E0019A00992068031D2360006806C0E2
:1010A000284686E72068011D21600068019A0099A2
:1010B000F5E7FFB51D460027FF4383B05C680020BD
:1010C00001909E68A96904987F1C88470090296A4E
:1010D00088470028F6D10098401C0CD0032040021D
:1010E0008443002E19DD600614D500982B2809D002
:1010F0002D280FD103E00020C04307B0F0BD012030
:1011000080020443A96904987F1C8847761E002E3C
:10111000009002DD0098302803D00598002825D0E3
:1011200035E00120A96940020443761E04987F1C23
:101130008847002E009003DD782805D0582803D07A
:101140000598002810D022E00598002801D010282A
:101150001DD10120A96940028443761E04987F1C9A
:1011600088470090102002E0082000E00A20059047
:101170000DE00121059A49020C430199761E514365
:1011800008180190A96904987F1C88470090002ED8
:1011900005DD0599009801F097FB0028E9DAE96977
:1011A00004988847A00502D40120C043A5E7E007C2
:1011B00022D1600611D56005019800D5404229680A
:1011C0000A1D2A600968220501D5087014E022076B
:1011D00001D5088010E008600EE02868011D296034
:1011E0000068210502D50199017005E021070199E8
:1011F00001D5018000E0016038467EE7FFB5144666
:1012000083B0002000260090506801909169976893
:10121000049888470C9905460698084305D009E0CC
:10122000A1690498761C88470546216A28468847A4
:101230000028F5D1681C03D00198C00704D017E03E
:101240000020C04307B0F0BD2068011D2160006888
:1012500000900DE00198C00704D100980570009837
:10126000401C0090A169761C04987F1E88470546A3
:10127000002F1CDD681C1AD0069800280FD0E81734
:10128000C00E4019411140098A00069940015118C9
:101290002A1A0968012090400142DBD107E00C982E
:1012A0000028D7D12846216A88470028D2D0E16992
:1012B000049888470C98002807D1002E05DD019876
:1012C000C00702D1009800210170A068B84204DD77
:1012D0000C98002804D0002F02D00120C043B1E7B1
:1012E0003046AFE70268511813780160184670471E
:1012F00010B5D160054979445161054979441162BD
:1013000000211161114601F0EFFA10BDEBFFFFFF64
:10131000BF0D00004268002A08D001680B78491C04
:10132000002B03D0521E06C0184670470121C16031
:10133000881E70474268002A0BD0C3680168002BE2
:1013400007D183688B4204D0491E521C06C000207E
:1013500070470020C0437047FFB5144687B0002097
:101360000190506803909768002002900646049010
:101370000590916908988847109905460A9808438E
:1013800005D009E0A1690898761C88470546216ABE
:10139000284688470028F5D1681C03D00398C00769
:1013A00004D02CE00020C0430BB0F0BD2068011D2C
:1013B00021600068019022E004AA6846E9B201F0C9
:1013C000F3FE411C07D0801C09D000200290039836
:1013D000C00707D00DE0E1690898884746E0012082
:1013E000029007E068460188019801800198801CFE
:1013F00001907F1EA1690898761C88470546002F3A
:101400001CDD681C1AD00A9800280FD0E817C00EFF
:101410004019411140098A000A99400151182A1ABD
:101420000968012090400142C6D107E010980028C9
:10143000C2D12846216A88470028BDD0E1690898B2
:1014400088470298002811D11098002806D1002E54
:1014500004DD0398C00701D101990880A068B84253
:1014600004DD1098002804D0002F02D00120C043D2
:101470009AE7304698E7FFB5144685B00020009003
:10148000506801909668002002900546039091698B
:1014900006988847109907460898084305D009E040
:1014A000A16906986D1C88470746216A3846884717
:1014B0000028F5D1781C03D00198C00704D01CE0A7
:1014C0000020C04309B0F0BD2068011D2160006804
:1014D000009012E00198C00709D1B9B2009802AAA1
:1014E00001F083FE411C34D0009908180090A169D6
:1014F0006D1C0698761E88470746002E14DD781C62
:1015000012D00898002807D03B460F9A0E9901F098
:101510003BFE0028DED107E010980028DAD13846DB
:10152000216A88470028D5D0E16906988847109835
:10153000002806D1002D04DD0198C00701D10099D3
:101540000870A068B04204DD1098002804D0002E76
:1015500002D00120C043B5E72846B3E7FFB51446E3
:1015600083B000273D4650680190916996680498C1
:10157000884700900E990698084305D009E0A169B4
:1015800004986D1C88470090216A009888470028BD
:10159000F5D10098401C03D00198C00704D014E096
:1015A0000020C04307B0F0BD2068011D216007681E
:1015B0000BE00198C00702D100983880BF1CA169D8
:1015C0006D1C0498761E88470090002E15DD00984B
:1015D000401C12D00698002807D0009B0D9A0C9949
:1015E00001F0D2FD0028E4D107E00E980028E0D1F8
:1015F000216A009888470028DBD0E1690498884771
:101600000E98002805D1002D03DD0198C00700D1F8
:101610003880A068B04204DD0E98002804D0002E67
:1016200002D00120C043BDE72846BBE7F0B50C4619
:10163000871A9C410D46861A9D4103D2C01BA141C9
:10164000D21963410D0D1F0DC94EEC1BAE435CD08A
:101650007F057F0D0026002F51D02D05AC46A943F4
:10166000DD020123ED0A1B051D4320231B1B24D48F
:101670001746E740381871412F46E740CC199D4086
:101680002818314661410C0D27D161449A4013D589
:101690000023401C594152000ED140084000012255
:1016A0004B005205D34207D305204007C14201D564
:1016B000B04900E0B0493046F0BD6B00002A00D0D0
:1016C00001229A181F23203C1B1B01D5002302E096
:1016D000E540281871410C0DD7D0012424050919C3
:1016E000C407CD0740084908E40F28436144002C93
:1016F000D5D00024401C61419A40D0D1CDE76A0585
:10170000520DD9D1C90FC907D5E79C4D4E0000280D
:1017100001D0012400E0002434195F00002A01D028
:10172000012600E00026BE19954FAC420CD8AE420F
:101730000AD8B44206D001256D05EC42BCD0104653
:101740001946F0BD9942FCD000203946F0BDF0B5F5
:101750001FB40C460F46811A9F412546861A9D41AB
:1017600006D20125ED076F40401ABC4152187B415B
:10177000210D1E0D8D1BAC467D4D8D437ED0750514
:101780006D0D7CD00D05AE46AC431B031B0B794D94
:1017900052429D41202366469B1B14D31746F740B7
:1017A000381800260090744160462F460741E4191E
:1017B00000989D402818664116D4714671189A40C9
:1017C00025D5012320E093182A466A415200002BB8
:1017D00000D0521C1E23203E9B1B002B61DD354197
:1017E000EE1728186641E8D5001876415B1C9A4030
:1017F00000D3401C4B05F3181524E34010D3002BF5
:1018000052D071467118D30FC01802D3491C05B0CD
:10181000F0BD0123DB079A42F9D140084000F6E70A
:1018200001225205B21801D1002853D00123CC0A5D
:10183000DB029943891E002A08D1020C03D0020C56
:101840000004103902E00246002020390023550B25
:1018500005D112020823550B01D152010D23550C5D
:1018600001D112011B1DD50C01D192009B1C150D3D
:1018700001D152005B1C2025EE1A01E02CE022E091
:101880000546F54015439840CA1AE1076918130543
:10189000C918002ABBDA032040070818C10FC9077E
:1018A0000FE071466118B2E7F10740080843711074
:1018B00071444A000CD001235B059A42A7D2C90F9C
:1018C000C9070020A3E74905490D26D1002001E002
:1018D0000028F4D100219AE7284D6600002801D0A5
:1018E000012100E0002171185F00002A01D00126CB
:1018F00000E00026BE19224FA94210D8AE420ED8F1
:10190000B14208D001256D05E94206D01946A8026A
:10191000414010467BE79C4201D0214677E70020FA
:10192000394674E710B50C465C4005D50124E40740
:101930006340FFF70CFF10BDFFF778FE10BD30B419
:101940000C465C4004D50124E407634030BC6DE6DE
:1019500030BCFCE670B50124E40761400D465D40F3
:1019600002D4FFF763FE70BD6340FFF7F0FE70BD69
:10197000FF0700000000F0FF0000F07F0000E0FF24
:101980000000F87FF0B5F94D0C091E092C402E40DF
:101990002F468BB0A7437DD0B543FCD0002E7AD024
:1019A000002CFCD00D465D40ED0F2543AC1BFF2500
:1019B000AD0464190894C502440DC9022143500DB9
:1019C000DC0204430120C00701430443D202019119
:1019D000200C110C00958C46010423468B430A9180
:1019E00061460904E24D8A430991010A7D4449197F
:1019F0008039097805464D4301266D18F605751B9B
:101A00006943C90C640B891C4C436418B5012C1B39
:101A1000250C2E04B4434C434D43210C691889090D
:101A20000591009DE90701D00121C90704912C46C9
:101A300001996708CD072F434C08059DE10B4D43E5
:101A40002D0C29466646754302950D4645432E46A4
:101A5000029D7D1BB44100950D465D4301942C0C05
:101A60002F040D465543AE462D0C3D43029503947D
:101A70007546049C2D04641B049406D2029C039DAD
:101A8000641C002675410395029401AC70CC009F44
:101A90007D1B01E03EE162E1B4410904009507913C
:101AA00001940599A4086143090C0C464443650B55
:101AB000E7040C4666467443A646640B3C43039514
:101AC00002947446049DE4042C1B049406D2029CE8
:101AD000039D641C002675410395029401AC70CCF3
:101AE000009F7D1BB44101940C465C430095650F3B
:101AF000E7000C465443A646640F3C43039502940A
:101B00007446049DE4002C1B049406D2029C039DA1
:101B1000641C002675410395029401AC70CC009FB3
:101B20007D1BB441AE09AF06049DC900AD092F432A
:101B3000049DA406AD060495079D344369180791DA
:101B4000059DE10B4D432D0C2946664675430295D4
:101B50000D4645432E46029D7D1BB44100950D4622
:101B60005D4301942C0C2F040D465543AE462D0CBD
:101B70003D43029503947546049C2D04641B049414
:101B800006D2029C039D641C0026754103950294B5
:101B900001AC70CC009F7D1BB44101948C05069470
:101BA000079C890A611800950791019C0599A40872
:101BB0006143090C0D464543680BEF040D4664462E
:101BC00065436C0B3C43049FED047D1BAC4602D285
:101BD0000025641C6841009E019D371B8541084615
:101BE000584301950C46460FC5005443600F2843E7
:101BF0006546E4002C1B02D20025401C6E41019D6D
:101C00003F1AB5412846BD09800628438446A009ED
:101C1000BF064E020699A40676180743079D0020CA
:101C200068410A99079019430020099B009060467B
:101C3000FF1913434041E20F64003A43A4460446AF
:101C4000D71A8C41A04203D90120009020463A4681
:101C5000C70F941840416246D20F22436446640085
:101C60000494009CBE466400D71AA446044602971A
:101C70008C417746002F01D1A04204D96046401C18
:101C80008446029A2046C40FA64694184041049AFE
:101C90000546D20F224364466400D31A8D41714633
:101CA000002901D1A84202D928461A46641C1043D3
:101CB0000122002800D0164361020020079B8919E9
:101CC00004465C410223002C02DB491813466441A0
:101CD000089DCE0A2D145D194B056705E10A2C05F8
:101CE0000D1908993E43C9076940002B08D093405D
:101CF00006D30022761C5141002B01D176087600D4
:101D00001C4A002D43DB154241D0AA433FD0304648
:101D10000BB0F0BD06180D464D41174C7642AC4154
:101D20001AD395181C465C41134A6D42A24113D345
:101D3000012252054C00D4420AD15C00D4420BD09F
:101D40004B4002D592021143E2E749004908DFE720
:101D50005940C90FC90718E000200849D8E70548CD
:101D600001420DD10342F7D0F2E700000000FF0767
:101D7000C9DB00000000F07F0000E0FF0000F87FFA
:101D8000114859400143C01241400020C0E70123DF
:101D9000089A9B069A4205DC032252078918C90F4C
:101DA000C907B5E7052252078918074A1143D2121D
:101DB0005140ADE770B515461C4602460B46284615
:101DC0002146FFF7DFFD70BDFFFFFF7F70B50546C1
:101DD0004800440D124B0020002C0AD0634008D06C
:101DE0009A4206DA6642B24203DD120540195141B9
:101DF00070BD002C08D0002B09D0C90FC907002ADC
:101E0000F6DB084A114370BDC90FC90770BD2846EB
:101E10000A03104302D00020034970BD284670BD5C
:101E2000FF0700000000F07F0000F87F70B5024659
:101E300001020123C01520249E26DD07002802D0C0
:101E40002943002813DB361A002E29DD0846F0400E
:101E5000A21B01D4914000E04908002906D0994016
:101E600000D3401C002901D14008400070BD00068D
:101E7000000E01D149004908361A11D40846F04035
:101E8000404200280CDCA21B01D4914000E049082C
:101E90000029EBD0CA0F490000D11843801A70BD49
:101EA000FF2150000906884201D9002070BDD017DB
:101EB000C043684070BD0000C10D10B50906090E91
:101EC0002ED0FF2931D07E292DD319D0962916D2B4
:101ED000024675398A4005D0002402468A4003D361
:101EE000012302E00124F8E700230222CA41511E27
:101EF0008843002B03D08018002C00D0904310BDE5
:101F00000121420201D1012200E00022C00FC007DE
:101F10000029F4D0002AF2D17F21C905084310BD61
:101F2000C00FC00710BD0021EFE74102FAD0014801
:101F300010BD00000000C07F10B5FF22C30D13408C
:101F400009D05A4007D0914205DA5C42A14202DD35
:101F5000C905081810BDC40FE407002B06D0002ADD
:101F600006D0002902DBFF20C0050443204610BD37
:101F70004102FCD0004810BD0000C07F30B5C30D49
:101F80001906214A090E31D0FF292FD000283ADB4B
:101F900001025002014301207D33C34000D24908B1
:101FA000012080071724091A2406490882102343B8
:101FB000FF252D064C00211A04D4891A02D454009E
:101FC000201800E0214652085B19F3D51A22044676
:101FD000944007D382068A4203D18021803088430F
:101FE00000E08030C009D905081830BDFF2904D0B1
:101FF0004100FAD0C00FC00730BD410201D01046E9
:1020000030BD0028FCDAFAE70000C07F00487047C6
:10201000E80020204343514330B55C18010C130CF9
:102020000D4692B25D4380B251432C19054655438B
:102030000A0C09044D1962415843010C000440196F
:10204000514130BD0B4670B50246890780080843F0
:1020500019469D08141AA9412509080705430809CE
:102060002C194841250A01060D43010A2C1941414A
:10207000200C0D0428430D0C00194D41002140197E
:102080004D41C00869070843E908840F8D002543C6
:10209000840024184D4124196D41121BAB4107E007
:1020A0000925ED432C11521963410024401C614164
:1020B0001C460A250026551BB441F1D270BD10B54F
:1020C000044601F06DF90068005DC007C00F10BD47
:1020D000FFB504460D4681B0243000902168880683
:1020E00004D51022E0699143216000E00120A8425C
:1020F00001DD471B00E000270498A1697A19101838
:10210000081AA0612078C00602D42046FEF782FC9F
:10211000002608E003986268A168805D9047206A05
:10212000401C761C206204988642F3DB2078C006AF
:102130000AD52046FEF76EFC06E06268A1683020F2
:102140009047206A401C206238467F1E0028F4DC3D
:1021500007E000986268A168405D9047206A401CD3
:10216000206228466D1E0028F3DC2046FEF768FC3E
:102170002078000602D5022005B0F0BD0120FBE763
:10218000FFB50C461E468FB003CA089009914F0058
:102190007D0D00D16D1E002108460020C0460321A0
:1021A000099A89050840002A03DA8200801840084D
:1021B0000840800D01280A9002DD0020C0430A90EB
:1021C000089807430DD0F048F049281848430714F1
:1021D000189800281DD07542291E1DDD0A9842421C
:1021E0001BE01898012802D00020302104E00020D4
:1021F000F24305E02154401CB042FBDB3046002294
:10220000189B002121540F998B600A60486013B01D
:10221000F0BDBD1B6D1CDFE70A9A002900DA694298
:102220000BA801F01DF90BAB07CB03AB07C3089953
:10223000099801F081F96B4607C30146D448091893
:10224000002D00910BDDD24903980A9A49424018AB
:10225000002303A90390684601F0DEFB08E0039920
:102260000A9A0023081803A90390684601F07EFB30
:102270006B4607C30004000C03D00020C043410894
:1022800000E01046189A002A03D00022009215465A
:102290001EE0751E05D4FFF7D5FE303262556D1E67
:1022A000F9D501220843079602D000227F1C04E0E2
:1022B0002078302801D100227F1E002A069787D07F
:1022C0001EE0112D07DAFFF7BDFE303262556D1C9E
:1022D00002460A43F5D1084303D00098002819D0DC
:1022E0000EE00021681E05E0235C625C635422540A
:1022F000401E491C8142F7DBA81B401E0795069033
:10230000079A18990020A0540F98079B069A81609D
:102310000CC07CE711260020189059E7D21DF0B5BB
:102320000D460446D10893B0C90003C90C900D9125
:102330000BF076FA02460D98C00F01D02D2007E071
:102340002068810701D52B2002E04007C00F400123
:10235000032A0F9001D0072A05DB034629462046B1
:1023600001F03AF80EE12078800601D5E76900E037
:1023700006272846652D04D0662814D0672D69D11C
:102380002DE00020112F009001DB112300E07B1CC9
:102390000CAA03A910A8FFF7F3FE119900261098C4
:1023A0007D1C0E9142E001203B460CAAC0070B9019
:1023B0000120009003A910A8FFF7E2FE119D1298DA
:1023C0001099002600280E9501D1781C0D18781B55
:1023D00002D446427D1C761EE81B00903AE0012F95
:1023E00000DA01270020112F009001DD112300E009
:1023F0003B460CAA03A910A8FFF7C2FE11993D465F
:10240000109800260E91217809070BD40E99A94245
:1024100000DA0D4603A9012D04DD4A19203AD27FC6
:10242000302A06D0B84201DA011D04DA01210091F8
:102430000FE06D1EEFE7002802DC86192D1A03E07D
:10244000411CA94200DD0D46801B401C009001206C
:10245000C0070B902078000705D40098A84202DB43
:102460000020C043009069460020C8720B980121EB
:1024700002AF0337C907884225D0022010902B20D5
:1024800011900B9800280BDA40420B902D201190F0
:1024900006E00B9800F0CAFE30317F1E0B903970B9
:1024A0001099481E00291090F3DC0B980028F0D1F9
:1024B00011987F1E38702088000501D5452000E066
:1024C00065207F1E387001A8C01BC01D0B900F989F
:1024D000002800D0012041190098C01709180B9856
:1024E0000818A169081A401EA0612078C00602D40D
:1024F0002046FEF78FFA0F98002805D06268A16881
:102500009047206A401C20622078C00625D52046CE
:10251000FEF780FA21E0002E07DB0E98B04204DDC2
:1025200003A86268805DA16802E06268A16830204B
:102530009047206A761C401C20620098401E0028AC
:1025400000900AD100F034FFC06862680168405C06
:10255000A1689047206A401C206228466D1E002812
:10256000D9DC07E062683878A1687F1C9047206A50
:10257000401C20620B99481E00290B90F2DC20467B
:10258000FEF75EFA032042E601FCFFFF104D00005B
:10259000E1DFFFFFD21DF0B504460D46D0088DB037
:1025A000C00046680768314638460BF039F90246E4
:1025B000F00F01D02D2307E02068810701D52B23E0
:1025C00002E04007C00F43016846002B037001D0B2
:1025D000012000E00020032A0A9001D0072A04DB32
:1025E0002946204600F0F8FE2DE12078800601D42F
:1025F0000D2500E0E5697000400D0D2D01904BDACE
:10260000300D00210B9008460020C04603218905AB
:102610000840002E05DA82008018C20F1018401002
:1026200008408015012801DD0020C043A9000023D7
:10263000182906D39C460A460123183A1B07D340A3
:1026400003E001221205CA4094460C31202902D32E
:102650003A46203900E032468A40002802DD002A4E
:1026600006D119E0002817D10121C9078A4213D3E6
:10267000194663467F185E41002806D10120C00735
:10268000824202D1084687439E430B98310D814216
:1026900002D00198401C01902088000502D57149A4
:1026A000794402E06F49794419396B460A9830221F
:1026B0001A540A980A7C401C1A54401C0A9001982B
:1026C000002801DC302000E031201872019A01203E
:1026D000002A02D0644BD21804E072003A4302D0C0
:1026E000614A521C0192002D02DC2278120703D5A8
:1026F0006A462E20507202200022864694460CE044
:1027000032033601120F6D1E8B5C02AA135462460F
:10271000521C401C9446052A01DA002DF0DC0022F0
:1027200002AE08E03B0F3F01CB5C521C6D1E3354E0
:10273000401C082A01DA002DF4DC23689A0601D532
:1027400011E0401E704504DD3218203AD27F302A55
:10275000F7D0002807DD3218203AD27F2E2A02D186
:102760001A0700D4401E002D03DD3E223254401CC7
:102770006D1E497C31540199401C002906DA2D2137
:10278000471C315401984042019003E02B21471C23
:10279000315401987D21C900884206DBFDF7D6FD42
:1027A0003030F0557F1C019101E0642808DB01986E
:1027B0006421FDF7CBFD3030F0557F1C019101E025
:1027C0000A2806DB01980A21FDF7C0FD3030F055DC
:1027D0007F1C01980A21FDF7B9FD3031F1550A98A7
:1027E000A1697F1C7A191018081AA0612078C00608
:1027F00002D42046FEF70EF9216A6E460A980818A0
:10280000206204E062683078A168761C90470A98DC
:10281000401E0A90401CF5D12078C00602D5204603
:10282000FEF7F8F802AE09E03078761C3E280DD0AD
:102830006268A1689047206A401C20627F1EF3D224
:102840002046FEF7FDF80DB00320F0BD206A4019C8
:10285000206203E06268A168302090476D1EEDD3CE
:10286000F8E70000CBCF000001FCFFFF10B5436983
:10287000002B02D0C046C04601E0FEF704F901205B
:1028800010BD1278014624310A7000224A700122DC
:10289000ECE711680022D243E8E710B54369002B4A
:1028A00002D0C046C04601E0FEF780F9012010BD0D
:1028B00012880146243182840022C2840122ECE77E
:1028C00011680022D243E8E73A2800D230382023AA
:1028D00002469A43412A01D310463738884201D331
:1028E0000020C04370470000F3B50C468FB00020B5
:1028F0000C90012000260E9008460C30039062696F
:10290000039801219047051E2ED0252D2DD0216A38
:102910008847002818D06269039801219047216AEE
:1029200088470028F7D16269411E0398904700E06C
:10293000761CA1690F988847216A88470028F7D13B
:10294000E1690F988847DAE7A1690F988847A8429C
:10295000074601D1761CD2E7E1690F9888477F1CB2
:1029600002D10C98002877D06BE1626903980027A8
:102970003D46394690472A280CD1626903980121C7
:102980009047012506E00A214F433F18303FEBD422
:1029900010200543626903980121904701463039B0
:1029A0000A2903D2AC498F42DEDCECE7E90600D409
:1029B000AA4F6C280AD04C2810D0682824D06A2846
:1029C0002ED074280CD07A280AD00DE062690398C2
:1029D000012190476C2823D004211CE020200543CE
:1029E0006269039801219047A760652865604FD010
:1029F00026DC582839D01ADC452849D012DC252895
:102A000034D04128B0D143E0626903980121904756
:102A1000682802D008210D43E6E70120C002DEE766
:102A20000220DCE7462833D047289DD130E05B28E0
:102A300070D061282CD063286CD0642894D161E0D8
:102A40006F284FD009DC662822D0672820D069285B
:102A500026D06E2817D12EE0EFE070284DD07328D5
:102A60006FD075284ED078280DD154E0A1690F9809
:102A700088472528054600D16CE7E1690F9888470B
:102A80006D1C00D16DE7DCE00A224CE00A2252E026
:102A9000012023466A460F99C0430CF047FCC5E06D
:102AA00040212846234608436060A80701D500223C
:102AB00039E000223FE0E80700D020E72068011D50
:102AC00021600068290501D5067018E7290701D59E
:102AD000068014E7A90703D5F117066041600EE7E9
:102AE00006600CE740212846234608436060A8079B
:102AF00001D5082217E008221DE059492846084060
:102B0000606016E040212846234608436060A8071D
:102B1000BCD5B9E715E04021284608436060A80706
:102B200007D52346102201200F99C043FEF71CFA57
:102B30007CE01022234601200F99C043FEF7B9FA2A
:102B400074E0002163280B460191009102910D91E0
:102B500002D05B2807D03BE0E80601D40120A0604A
:102B60000120009034E0E06801210D906269039833
:102B700090475E2807D101200190E06801210D9067
:102B80006269039890472169002906D10B4604AA7F
:102B90008F00491C0829D351FADB002851D0216944
:102BA000002926D00298401C0290626903980121F6
:102BB00090475D28F1D10198002808D0002004AB8F
:102BC0008100401C5A58D24308285A50F8DB04AB05
:102BD0002069002820791CD04007029A00980D9B9C
:102BE0000092224602901F480F991DD5FEF7B6FCB1
:102BF0001CE0C117C90E09184A114909930004AA1B
:102C00009A184901411A1368012088400343136050
:102C1000CBE74007224613480F9902D5FEF79CFBED
:102C200004E0FEF7EBFA01E0FEF725FC00280ADAE3
:102C3000401C06D10E98002803D00020C04311B0DC
:102C4000F0BD0C98FBE7E90702D10C99491C0C91E7
:102C5000361800200E9052E6CCCCCC0CFFFFFF7F44
:102C6000F1F7FFFFFEFFFFFFFFB58BB00878FF28ED
:102C700006D0491C2D2805D000230020009009E033
:102C800000200EE00123F8E7009A0A24624380182E
:102C9000491C00900878FF28F6D1002B02D000983C
:102CA00040420090002503952C460D9800782D2871
:102CB00001D02B2815D10D99491C2D280D9102D03A
:102CC000002003900DE00120FBE7401C2146002777
:102CD0000A223B460D902846FFF79CF935183C46E2
:102CE0004C410D980678FF2EEFD1002108460020B8
:102CF000C0460399002902D0810040184008000214
:102D0000860F012E01DD0026F6430E990098471824
:102D1000284620430BD0FF20F530C7421ADA03982B
:102D2000C1070B98002E41600ADD012009E00398DD
:102D3000C1070B9841600B99002008600FB0F0BDEF
:102D400000200B990860FFF761F90221016018214A
:102D500008461AE0FF20F530874219DD002E02DA1E
:102D6000FC48784401E0FC48784406C80B9806C04B
:102D70000B9803994068C90708430B994860FFF70F
:102D800045F902210160142108460020C046D5E71C
:102D9000002108460020C04639000A9001D5724241
:102DA00000E03246002900DA794207A800F058FB1B
:102DB00007AB07CB04AB07C3E848009000200146EF
:102DC000214304D12C460546E44920390091210CC9
:102DD0000904014306D1290C24040C4300992D0455
:102DE00010390091210E0906014306D1290E240253
:102DF0000C4300992D0208390091210F0907014366
:102E000006D1290F24010C4300992D01091F0091BF
:102E1000A10F8907014306D1A90FA4000C43009913
:102E2000AD00891E0091E10FC907084304D1009845
:102E30006D196441401E0090002F0295019406DD3B
:102E400032466846012304A900F09EFD05E00123F7
:102E50003246684604A900F0ECFD044603980D468E
:102E6000002802D00120C00744400021084600206D
:102E7000C0460A99BA4E48400007800F07D160004B
:102E80004008284303D06000400DB04214D1FFF742
:102E9000BDF8022101606000400DB0420CD1B14884
:102EA000784406C80B9806C00B98E10FC907406824
:102EB00008430B99486041E70B9844600B98056004
:102EC0003CE7FFB51F4695B0002000250C909E689A
:102ED0005C68ED43139000F06BFAC0680168405CD9
:102EE0001490B96916986D1C88470A90396A88470A
:102EF0000028F6D10A98401C0AD00D20C001844356
:102F0000002E12DD0A982B2809D02D280DD103E0C0
:102F10000020C04319B0F0BD012080020443B9690C
:102F200016986D1C8847761E0A90600504A901D585
:102F30002D2000E02B206A46491C107410A8002E9A
:102F40000D910B903BDD0A98692805D0492803D0E4
:102F50006E2801D04E281DD13B46039002200296D8
:102F6000179A1699C043009501940CF0EFF9C11C13
:102F7000D0D10FE0B96916986D1C88470A900120DE
:102F8000761E40020443179805601398401C002EDB
:102F9000139014DD0A983028ECD0782801D05828F6
:102FA0000DD1139801280AD13B460296179A16991B
:102FB000001F009501940CF0C1F9C11CAAD114990D
:102FC0000A98884245D18020044308E00C9817995C
:102FD000401E0C90012040020443681C0860B9693F
:102FE0006D1C1698761E884730280A90EED030E087
:102FF0001499884205D1200603D480200443761E0C
:103000001DE00A980AF04DFE002825D001210A98FB
:1030100049020C430D9908AA03323038761E9142BA
:1030200008D208700D98401C0D90200607D50C980A
:10303000401E03E0200602D40C98401C0C90A00512
:1030400002D51799681C0860B96916986D1C8847E5
:103050000A90002ECCDC59E0002E57DD0A98652836
:1030600001D0452852D1A00550D50320B9690002EE
:1030700084436D1C1698761E8847002E0A900CDD3E
:103080002B2804D02D2808D1FF2001300443B96932
:1030900016986D1C8847761E0A90E00501D52D21F3
:1030A00000E02B210B9801700B98401C0B900090B6
:1030B00025E0012012A9400204430B980131761E3D
:1030C00088420ED20A980B9930380006000E08701C
:1030D00003D100990B9888420AD90B98401C0B9099
:1030E00006E0E00501D5204801E01F4840420C9071
:1030F000B96916986D1C88470A9017980560002ECC
:1031000004DD0A980AF0CDFD0028D2D1F96916989D
:1031100088470D99FF2004AA08700B9908700020B9
:103120000E900F900C9B10A90EA8FFF79DFDA00517
:1031300002D40120C043EDE62420044216D0E0076B
:1031400020D138680F9A0E99031D3B60006806C0B5
:1031500018E0000072D5000064D500003E40000079
:10316000FF0700002CD40000F1D8FFFF0EA968462D
:103170000AF010FCE00705D13868009A011D39609B
:10318000006802602846C5E610B509E00488801C86
:103190009C4205D1002A01D0002010BD012010BDA5
:1031A000491EF3D2104610BDF8B516460C4605462A
:1031B00000F0F6F80368FF200230C05C012805D05B
:1031C000185D00280ED001202C80F8BDFF33324658
:1031D000214604331868C71868460023B847009989
:1031E0002980F8BD0020C043F8BDF8B516460C464E
:1031F000054600F0D5F80368FF200230C05C0128C6
:1032000007D0FF2C0FD8185D00280CD001202C709F
:10321000F8BDFF333246214608331868C7182846E0
:103220000023B847F8BD0020C043F8BD0146800820
:10323000081A02091018020A1018020C1018C00807
:10324000820012185200891A01E0401C0A390A292A
:10325000FBD27047F8B5264C4E00069DA6420AD810
:10326000A64201D1002806D15E00A64203D8A6429C
:103270000AD1002A08D00D242404254233D029463F
:10328000002000F021FCF8BD0C461C4311D49942EB
:1032900007D0C81A02D3EFF30080F8BDEFF3008027
:1032A000F8BD801A02D3EFF30080F8BDEFF3008081
:1032B000F8BD09242407E5008B4207D0581A02D331
:1032C000EFF3008006E0EFF3008007E0101A03D36D
:1032D000EFF30080A04303E0EFF30080A043284316
:1032E00080F30088F8BD009500F006FCF8BD0000F2
:1032F0000000E0FF10B5FF231B0644009C421DD8D0
:103300004C009C421AD80346124A0B4307D4401A79
:1033100002D3EFF3008010BDEFF3008010BD081A58
:1033200003D3EFF30080904305E0EFF30080012129
:103330009043C907084380F3008810BD0D231B0488
:103340001A4204D01146002000F0BEFB10BD00F070
:10335000DDFB10BD0000009000487047E800202011
:103360007546FFF7F9FFAE46050069465346C008AB
:10337000C000854618B020B5FCF78EFF60BCB6468D
:1033800000260027C0C5C0C5C0C5C0C5C0C5C0C5D2
:10339000C0C5C0C5403D490849008D467047000082
:1033A00010B500F005F8001D10BD00BF81BA000087
:1033B000004870470801202010B5202A04DB014690
:1033C000203A9140002010BD914020239C1A0346D2
:1033D000E3401943904010BDF8B51F460446012351
:1033E0000068DB02032601461840072A05DB002897
:1033F00001D017A506E017A504E0002801D016A506
:1034000000E016A5102081432160A069C01E002F96
:10341000A06101D0401EA0612046FDF7FBFA002FFD
:1034200009D038466268A1689047206A401C206233
:10343000C01C206206E0206AFAE762682878A1686A
:103440006D1C9047761EF8D22046FDF7F9FAF8BDBC
:103450004E414E006E616E00494E4600696E660038
:10346000F7B516468AB0334878446C4603467C3339
:10347000C06F5A689B680DC42E487844763003AC00
:103480000DC80DC43720C001081837211B30FCF7C8
:103490005DFF05460C46803D1B3C02D56442012081
:1034A00000E000200027099010E0E0070CD00C207D
:1034B00020497843794432464C3941186846012303
:1034C00000F054FA6B4607C364107F1C002CECD14B
:1034D000184F7F442E3F16E0E80712D02001C01994
:1034E0000EC80691089307920068F04201D198191E
:1034F00008903246012306A903A800F037FA03AB6F
:1035000007C36D10641C002DE6D10998002806D071
:1035100032466946012303A800F07EFA05E0012344
:103520003246694603A800F021FA0A9B07C30DB092
:10353000F0BD000018C20000034640000A4610B566
:10354000400D0BD00121C9070F24A40200191C0350
:1035500064082143540D2143D20207E000210120D9
:10356000F2E7D40F490021435200401E0029F8DA47
:10357000DB0FDB07184310BDFFB50D46144685B0C1
:10358000486851680AF034F900910190A868A16870
:103590000AF02EF902910390A86861680AF028F9F0
:1035A000029A12188242029201D2012000E0002009
:1035B000019A0B18D2180028019202D08A4202D92F
:1035C00003E08A4201D2012000E00020009908189F
:1035D00000906868A1680AF00BF9029A12188242FA
:1035E000029201D2012000E00020019A0B18D218AB
:1035F0000028019202D08A4202D903E08A4201D215
:10360000012000E000200099081800902868216837
:1036100040004900400849084018FA49471814E09A
:1036200001994000C90F0843009001980299400099
:10363000C90F08430190029803994000C90F08433D
:103640000290039840007F1E039000980028E7DA5C
:103650000898002801D0EC4E00E00026B74201DABD
:10366000012000E00020002804902AD0F71BF80673
:10367000C00E15D0029B2021091A039A8B401A43D1
:103680000392029A019BC2408B401A430292019A14
:10369000009BC2408B4000991A430192C1400091A7
:1036A0007B110DD06F460320C11A03D50021820083
:1036B000B95003E08A008100BA587A50401EF3D511
:1036C000374603980299002800D00120014308984A
:1036D0000291002808460CD0002800D00120019952
:1036E000019A490508430121D20AC902D202019276
:1036F00000E001210E9B0122D207012B02D0002BFA
:1037000003D013E0002807D120E0904204D8904273
:103710000CD1019B0B4209D0019B5918019105D195
:103720000099491C009101D17F1C009200280DD006
:10373000102108460020C0460498002806D00F98A3
:10374000002803D0082108460020C04628682168C8
:10375000019B009A4840C10F0598C90739430EC024
:1037600009B0F0BDFFB587B0099A08980899536869
:1037700092684068896896460022039317469446EB
:10378000089A12685300099A5B081268520052089E
:103790009A1A9E4BD4180A9A002A01D0352200E0CA
:1037A000402206920022012315460492DB0705936E
:1037B00024E0002D05D175460346039E4D1BB34101
:1037C00009D375466646039B491B049D9841059B9A
:1037D0007519AC465F4163463B4308D0059B049E88
:1037E000DD0776082E435B080496059301E0521E20
:1037F000641EC50FED0749184041521C069B9A42B2
:10380000D7DB002D04D17546039A6B1A824101D291
:1038100003200CE0039A0B466B404240134303D055
:10382000014303D0012002E0022000E000206146B5
:1038300001910021009702910A99002905D0614663
:1038400040020143704B019102E080070023029087
:103850009C4201DA012000E0002007003AD01A1B48
:10386000D006C00E15D0029D2021019C091AC5402A
:103870008C402543029C8C4000D001242543019CB0
:103880000295009DC4408D4000992C430194C14095
:10389000009154111DD06D460221002202290CD145
:1038A0000320001B07E0002804DB8600AE59002E31
:1038B00000D00122401C0328F5DB081B02D588003C
:1038C0002A5004E08000285810438A00A850491E5E
:1038D000E3D51C460A98002802980CD0002800D096
:1038E00001200199019A490508430121D20AC90220
:1038F000D202019200E00121109B0122D207012B8C
:1039000002D0002B03D013E0002807D11FE0904223
:1039100004D890420CD1019B0B4209D0019B59184D
:10392000019105D10099491C009101D1641C0092BC
:1039300000280CD0102108460020C046002F06D0D9
:103940001198002803D0082108460020C046089896
:103950000999019A009B006809684840C10F0798BF
:10396000C907214382600AC00BB0F0BD00B585B025
:10397000019300920A460146002302A8FFF7FCFDCE
:1039800002A807C805B000BDFFB50A461F4685B0AE
:103990000799019301230091014602A8FFF7ECFD6E
:1039A00002990398049ECA0F4900D20700920F2281
:1039B000490892028C1A0021002800DB0C464500C1
:1039C00013486D08844214D3079A002A04DA441E6F
:1039D0000026104DF64302E004460D460E46102127
:1039E00008460020C046002F03D0042108460020CE
:1039F000C0462005E90A0843009908436905F20A10
:103A00001143ADE602C0FFFF013C0000FF3F000094
:103A1000FF070000FFFFFF7F00B585B00193009214
:103A20000A460146002302A8FFF79CFE02A807C829
:103A3000A8E7FFB50A461F4685B007990193012301
:103A40000091014602A8FFF78DFE02990398049E9B
:103A5000CA0F4900D20700920F22490892028C1A1D
:103A60000021002800DB0C46450011486D08844207
:103A700014D3079A002A04DA441E00260D4DF6439B
:103A800002E004460D460E46102108460020C046BE
:103A9000002F03D0042108460020C0462005E90A73
:103AA0000843009908436905F20A114358E60000EB
:103AB000FF070000FFFFFF7F10B50446C046C04669
:103AC0002046FCF7DBFB10BDC80212D54803400FAF
:103AD000002804D0C803C043012188407047EFF399
:103AE00000800001000903210907084380F30088D2
:103AF000704700207047000010B500200249029A6C
:103B000000F088FA10BD00000000F87F10B50248F0
:103B100000F080FA10BD00000000C07FFFB51F4616
:103B200089B0139812994005C00FC0070590002076
:103B3000079005460446461E049002903C20491C0E
:103B400012910690B9690A98884703901498401E0C
:103B500014901498002841DD03982E2816D01021C7
:103B6000FEF7B2FE002834DB0121049107990143DE
:103B70001AD0069900290CDB069AC117FFF71CFC26
:103B8000054306980C43001F069006E001200290B2
:103B90000EE0002801D00120054301200790029883
:103BA000002805D1361D03E00298002800D0361FFA
:103BB0001298401C1290B9690A988847039014988B
:103BC000401E149004980028C3D00B9912980860E6
:103BD000BFE70398702808D0502806D0F9690A98E2
:103BE00088470498002815D051E000200390012058
:103BF0000290049800280AD01298401C1290B969CB
:103C00000A9888471499491E0029149106DCF9691D
:103C10000A9888470120C0430DB0F0BD2B2804D07E
:103C20002D280DD10020C04302901298401C129004
:103C3000B9690A9888471499491E00291491E6DD4C
:103C4000411CE4D00A21FEF73FFE0028DFDB039988
:103C50000A225143081803901298401C1290B96927
:103C60000A9888470A21FEF72FFE14990B9A491EDD
:103C70001491129911601499002901DD0028E6DAE7
:103C8000F9690A9888470299039848438619139856
:103C90002421084004902846204304D0A10F89071E
:103CA000090002D006E005989BE0A90FA4000C4390
:103CB000AD00B61EE10FC907080002D16D196441BD
:103CC000761E0498002803D00B2002905D4803E084
:103CD000282002907D20C0438642039007DA811B92
:103CE000029808184128029001DD41200290029AB2
:103CF00001200021521EFFF75FFB024628400B46C1
:103D00002140084301D0012000E00020079000205E
:103D1000521EC04343412A4023401A4301D0012090
:103D200000E0002007990690014352D00021084688
:103D30000020C0460321059A89050840002A05D0C5
:103D400082008018C20F101840100840801501280A
:103D500002DD0020C04301E0012815D0401C38D00E
:103D60000798002835D0069800280DD1029A012026
:103D70000021FFF721FB28402140084301D001200A
:103D800000E00020002824D0029A01200021FFF743
:103D900013FB034640198C4661412A1A8C410FD30C
:103DA0000298402807DD0498039E002801D0343E85
:103DB00002E0173E00E0761C01240025E40708E03D
:103DC0005B1E62460024E4436241DD43D443054068
:103DD0000C4003980121081AB04206DA1A490598E6
:103DE00008430190002000900EE060006205010B86
:103DF000E80A1043059A009068460A4313490A43AB
:103E00003146019209F0F2FE049800280AD0139876
:103E1000C00714D13868019A0099031D3B600068FF
:103E200006C00CE002A8694609F0B4FD1398C0076B
:103E300005D13868029A011D396000680260129845
:103E4000EAE6000002FCFFFF0000F07F0000F03F08
:103E5000FFB51D4687B01198484A109C129E400538
:103E60001399C00F761EC0070243019200220092F0
:103E7000FF22D2051043202291434929059003D007
:103E800017464E2928D04FE03DA002AA0BC80127B3
:103E90000BC2A9690898641C8847761E014607D49E
:103EA00002A8C05D002803D02022914381420AD09D
:103EB000E96908988847032F36D0082F34D00120AD
:103EC000C0430BB0F0BD7F1C032F01D0082FE0D101
:103ED0000999601C0860DCE7A9690898641C884798
:103EE000761E2DD4B84341282AD1A9690898641CAC
:103EF0008847761E24D4B8434E2821D1A969089852
:103F0000641C884701990122D2041143019105994B
:103F1000D200114305910999761E0C6001D428281E
:103F200006D0E969089888471198C00712D023E0A5
:103F3000A9690898641C8847761E01D4002803DA12
:103F4000E96908988847BAE72928F1D10998641CDB
:103F50000460E9E711982421084207D02868019AF3
:103F60000099031D2B60006806C005E028680599CC
:103F7000021D2A60006801602046A2E70000F07F71
:103F8000494E46494E49545900000000024670B55A
:103F90000A4392072AD11E4DEE0104C808C9541BDA
:103FA0009443344017D0D0B2D9B2401A210601430D
:103FB00010D190B299B2401A210401430AD11002E3
:103FC0001902000A090A401A2102014302D1100E07
:103FD000190E401A70BD9A42DFD010BA19BA884241
:103FE00001D9012070BD0020C04370BD02780B785C
:103FF000401C491C002A09D09A4207D102780B784C
:10400000401C491C002A01D09A42EFD0D01A70BD42
:104010000101010110B50C461107090F092904D04F
:104020000A290AD008290CD104E011460820FFF71C
:104030004BFD06E0510606D501E0510601D50120F1
:10404000C007214610BDD10607D501010909CC08DA
:104050004907000E0006044309E0410F200249070A
:10406000000A0143200E00061D22D14101430846EB
:10407000E7E7000001491820ABBEFEE7260002007A
:104080007047000080B50120800700F0BBF80A28C7
:1040900004D1FFE702490120087000E0FFE780BD7E
:1040A0006A1C202010B51949194848600120820473
:1040B0008A6048708870174A4A620B46203344056C
:1040C0008C62587098704A640B46403304038C64C9
:1040D000587098704A660B46603304028C665870BC
:1040E00098700B4680335A6044029C6058709870F8
:1040F0000B46A0335A6084029C6058709870C0319F
:104100004A60C2028A604870887010BD5C18202026
:1041100000000A4000200A4082B001900091009BFC
:104120000199D74A88581843885002B07047C04652
:1041300010B585B00092024600980B9C0A9C099C21
:10414000089C079C049203AA1170029001930298A4
:1041500001990843079908430899084309990843B6
:104160000A9908430B990843049912789200891818
:104170002322D201885005B010BD81B00090009973
:1041800011200202885801231843885001B070475B
:1041900081B0009000991120020288580123184331
:1041A000885001B07047000082B001900091009BE0
:1041B0000199D94A88581843885002B07047C046C0
:1041C00081B0009000990120C202DF48885001B000
:1041D0007047C04684B0009101460098039102A93F
:1041E000087003980978890040182521C9014018F2
:1041F000019001980249405880B204B07047C0460F
:104200000050550081B0009000988121490140582C
:10421000C0B201B07047000081B000900099024A1E
:104220000248885001B0704704080000030000B144
:1042300080B582B00190009101980D494018009915
:104240000978A922120689180A4A00F061F8019833
:10425000112109024018009949680722120600F04E
:1042600057F8009840780199034A885002B080BD01
:1042700008080000030000FF1011000082B0019048
:104280006846018000880199014A885002B0704751
:104290001411000080B582B001900091019804498A
:1042A000401800991F22120400F0AAF802B080BD45
:1042B0000811000081B000900099044A8858012339
:1042C0001B021843885001B07047C046041100001B
:1042D00083B00290019100920298019908430099DD
:1042E00008430549086003B07047C04602480068AB
:1042F000072108407047C0460013404082B001903B
:104300000199881E001F00BFFCD2009002B07047C8
:1043100084B0039002910192039800680090009885
:1043200001998843009000980299019A114008432E
:104330000399086004B0704784B003900291019221
:1043400003980068009000980199884300900098B5
:104350000299019A114008430399086004B070471C
:1043600084B0039002910192039800680090009835
:1043700001998843009000980299019A11400843DE
:104380000399086004B0704784B0039002910192D1
:104390000398006800900098019988430090009865
:1043A0000299019A114008430399086004B07047CC
:1043B00084B00390029101920398006800900098E5
:1043C00001998843009000980299019A114008438E
:1043D0000399086004B0704784B003900291019281
:1043E0000398006800900098019988430090009815
:1043F0000299019A114008430399086004B070477C
:1044000084B0039002910192039800680090009894
:1044100001998843009000980299019A114008433D
:104420000399086004B0704784B003900291019230
:1044300003980068009000980199884300900098C4
:104440000299019A114008430399086004B070472B
:1044500082B001900091009B0199094A8858184345
:10446000885002B07047C04682B001900091009B16
:104470000199034A88581843885002B07047C046D3
:104480004810000082B00190009100980199952297
:104490005201885002B0704782B00190009100989C
:1044A000019995225201885002B0704782B0019064
:1044B00000910098019995225201885002B07047EE
:1044C00082B0019000910098019995225201885084
:1044D00002B0704782B00190009100980199952236
:1044E0005201885002B0704781B00090009881005E
:1044F0005C4A885801235B061843885001B0704716
:1045000082B001900091009B0199034A885818439A
:10451000885002B07047C0462810000082B0019059
:10452000009100980199024A885002B07047C04635
:10453000D012000081B0009000990120C2028B4887
:10454000885001B07047C0460100002682B001903B
:1045500000910198024940580099084002B0704704
:104560003810000081B00090009881003D4A0D484D
:10457000885001B07047C04610B584B0069C0390C7
:10458000029101920093029801990843009908430F
:10459000069908430349084303998900314A885022
:1045A00004B010BD8100040081B00090009881002B
:1045B0002C4A8120885001B07047C04610B584B0A5
:1045C000069C03900291019200930298019908437E
:1045D00000990843069908438121084303998900FB
:1045E000204A885004B010BD81B00090009881002E
:1045F0001C4A0020885001B07047C04682B001902C
:10460000009100981049084301998900154A885083
:1046100002B0704710B584B0079C069C03900291CD
:104620000192009302980199084300990843069962
:104630000843079908430449084303998900094A34
:10464000885004B010BDC0468000040082B00190C4
:10465000009100988021084301998900014A8850FF
:1046600002B070470480424082B0019000910198EE
:104670002721C90140580099084002B07047000046
:1046800081B0009000997C4A7C48885001B0704706
:1046900082B001900091009B0199034A8858184309
:1046A000885002B07047C0469013000082B001905D
:1046B000009100980199164A885002B07047C04690
:1046C00082B00190009100980199114A885002B07F
:1046D0007047C04682B001900091009801990C4A41
:1046E000885002B07047C04682B001900091009897
:1046F0000199074A885002B07047C04682B00190C5
:10470000009100980199024A885002B07047C04653
:104710009012000081B00090009909204202885850
:1047200001231B021843885001B0704781B00090EC
:104730000099084A885801231843885001B07047EF
:1047400081B000900099034A885804231843885088
:1047500001B070472812000081B00090009901203C
:10476000C202B948885001B07047C0460100002617
:1047700080B584B00390029101A8028069460020B0
:104780000880FFE76846008801A90988884215DA91
:10479000FFE7039800F050F8002808D1FFE70398DE
:1047A00002996A461288895C00F00CF900E005E085
:1047B000FFE70098401C69460880E3E768460088E8
:1047C00004B080BD80B582B00190019800F0E4F89B
:1047D000FFE7019800F020F8002801D1FFE7F8E793
:1047E000019800F0E3F802B080BD000081B00090B5
:1047F00000980249405801B07047C04618120000A6
:1048000081B000900098124940580F210840414261
:10481000484101B07047C04681B0009000980C49F3
:1048200040580F21090208400249401841424841BE
:1048300001B0704700F8FFFF81B000900098044974
:1048400040580F21090208404142484101B07047D9
:104850003C12000081B00090009802494058C0B25C
:1048600001B070471C12000081B000900099984A76
:104870009848885001B0704704080000030000B158
:1048800081B000900099424A0020885001B07047E2
:1048900080B584B0019101460198039102A9088076
:1048A0000398092252028018098803225202FFF756
:1048B000A7FD04B080BD000080B582B001900091DA
:1048C000019896494018009909780C22FFF734FDA9
:1048D0000198012109034018009949780722FFF740
:1048E0002BFD02B080BDC04680B584B00191014669
:1048F0000198039102A908800398314A8018098819
:1049000007221202FFF77CFD04B080BD80B584B0A1
:10491000019101460198039102A908700398284A61
:10492000801809780722FFF76BFD04B080BDC046F0
:1049300082B001906846017000780199014A885060
:1049400002B070472412000010B586B001920246F2
:1049500001980592049103AA107002A8038005989B
:10496000094940180499490012781143074AFFF792
:104970005BFD05980649401802990904C91D054ABE
:10498000FFF752FD06B010BD10120000FF07000037
:10499000141200000700FF0F81B000900099084A30
:1049A000885880231843885001B0704781B0009028
:1049B0000099034A885880239843885001B0704773
:1049C0003812000082B001906846017000780199A9
:1049D00091225201885002B07047000082B0024616
:1049E00001A802700091009B007830214143034AE6
:1049F00088581843885002B07047C046281140407C
:104A000082B0024601A8027000910178302048432C
:104A1000024940580099084002B0704710114040C8
:104A200081B0009000991A4A885801231843885091
:104A300001B0704781B0009000990120C202024885
:104A4000885001B07047C0460100002680B582B092
:104A5000019000910198112109024018009A1189D2
:104A60005388194392791143084AFFF779FC01985A
:104A700007494018009A9188D37919431278114355
:104A80005D229200FFF76CFC02B080BD7F33000016
:104A90000411000081B00090009803494058102193
:104AA0000840000901B070471011000081B000906B
:104AB000009802494058C0B201B070473011000060
:104AC00081B000900099024A0248885001B07047B6
:104AD00004080000030000B180B582B0019000918D
:104AE0000198044940180099034AFFF789FC02B075
:104AF00080BDC04608110000FF03000082B0019095
:104B00000091009800780199044A885000984078F4
:104B1000019901221203885002B07047041000006E
:104B200080B584B000920A4601460098039102A91C
:104B30000A7001AA10700398044BC0180978127803
:104B400011433F22FFF75CFC04B080BD0C11000054
:104B500082B0019068460170007801994522920167
:104B6000885002B07047000080B586B0059000F014
:104B700083F8FFE700F0A8F8012189030840884284
:104B800001D0FFE7F6E70598417E2B48029001220D
:104B90000392FFF721FC05982021415C27480190F2
:104BA0000322FFF719FCFFF7A1FB014603980491CC
:104BB00000210422FFF78CFB01980599496A0968D6
:104BC0001F4A11600599496A49681E4A1160049993
:104BD0001D4A11600599C9694906490C7F221202D4
:104BE000FFF7FAFB0298059A11680907090B536849
:104BF0001B039BB2C91893681B071B0DC918D36808
:104C000019431369194353691943127E11430F4A1B
:104C1000FFF7E2FB039A5D4908681202104308603F
:104C2000FFE700F051F8012149020840884201D015
:104C3000FFE7F6E706B080BD20010B4024010B40E2
:104C400028010B402C010B400013404072FF0F0065
:104C50005B49086801221207904308607047C0460C
:104C60004A4908680122904308607047474908682C
:104C700001229043086070474449086801221202EB
:104C8000904308607047C0464049086801221202FC
:104C9000904308607047C0464949086801221207DE
:104CA000104308607047C046734908680122120328
:104CB000104308607047C04602490868102210433C
:104CC000086070473C010B40034800687047C046CD
:104CD000014800687047C04604020B4081B001469D
:104CE0006846017000780249086001B07047C0460C
:104CF00008030B4080B582B0014601A801800188FD
:104D00000F2002025C48FFF77BFB02B080BDC0466B
:104D100080B582B0014601A80170007801030F2020
:104D200002033548FFF76CFB02B080BD80B586B04A
:104D300005AB01931880049103A802900270FFF75D
:104D40008FFF0198008800F023F8049800F02EF8F7
:104D500002980E4A11680123194311600078C007B8
:104D600000280DD0FFE7FFF797FFFFE7FFF7ACFF45
:104D7000012109020840884201D0FFE7F6E702E07E
:104D8000FFF766FFFFE706B080BDC04608010B4095
:104D900080B582B0014601A801800188032002038A
:104DA0000748FFF719FB02B080BDC04680B582B04E
:104DB000019001990248FF22FFF70EFB02B080BD6F
:104DC00010010B4081B0014668460170007802492D
:104DD000086001B07047C0460C010B4080B582B03E
:104DE000014601A801800188012042020248FFF724
:104DF00007FB02B080BDC04638010B4080B582B0D1
:104E0000014601A80170017802480322FFF7F8FA71
:104E100002B080BD00010B4080B582B0014601A800
:104E20000170017814483022FFF7EAFA02B080BD21
:104E300080B582B0014601A801700078FFF7C2FF7B
:104E4000FFE7FFF741FF012149050840884201D0F3
:104E5000FFE7F6E7084908680122120410430860DA
:104E6000FFE7FFF731FF10210840102801D0FFE7CE
:104E7000F7E702B080BDC04604010B4080B58CB09E
:104E80000B900A910A984079C00700285CD0FFE790
:104E90000A9800790790002804D0FFE70798202897
:104EA0000CD018E00B9888210691022200F0AEF990
:104EB00006990B98032200F0A9F919E00B9821211B
:104EC00009010591022200F0A1F905990B9803222E
:104ED00000F09CF90CE00B980521C9010491022215
:104EE00000F094F904990B98032200F08FF9FFE782
:104EF0000B980022029202230193114600F0A0F9C0
:104F0000029A0B9803230393114600F099F9019933
:104F1000029B0B98009119461A4600F0C9F9029BB2
:104F200003990B98009119461A4600F0C1F9019BAC
:104F3000029A0B98114600F0A1F9029A039B0B9874
:104F4000114600F09BF9FFE70A98006808900A985C
:104F5000007908A908710A98807948710B9800F0C7
:104F600027F80CB080BD000081B000900099024A83
:104F70000120885001B070470811000082B00190F4
:104F80000091009B0199034A88581843885002B049
:104F90007047C0462810000081B0009000990120A1
:104FA000C2020248885001B07047C0460100002686
:104FB00080B58AB009900891089800790790002878
:104FC00004D0FFE70798202812D029E00998089913
:104FD0000968491E00F0C8F9099888210691002245
:104FE00000F014F906990998012200F00FF92AE05F
:104FF000099808990968491E00F0B6F909982D49E1
:105000000491002200F002F9049909980122059206
:1050100000F0FCF805990998490700F097F912E0AB
:10502000099808990968490800F09EF9099805212E
:10503000C9010391002200F0E9F8039909980122BF
:1050400000F0E4F8FFE709980023019319461A4697
:1050500000F0F6F8019A099801230293114600F036
:10506000EFF8019B0998009319461A4600F020F9C1
:10507000019B02990998009119461A4600F018F907
:10508000019B099819461A4600F0F8F8019A029B0C
:105090000998114600F0F2F80998BE494018089A9C
:1050A00011795279114302221143034AFFF76CF937
:1050B0000AB080BD01040000BFFF003080B584B09D
:1050C0000390029103980299496800F04DF9029803
:1050D00000780190222856D80198810001A04058FC
:1050E0008746C0467D510000875100007D51000079
:1050F0008751000087510000875100008751000050
:10510000875100008751000087510000875100003F
:10511000875100008751000087510000875100002F
:10512000875100007151000087510000715100004B
:10513000875100008751000087510000875100000F
:1051400087510000875100008751000087510000FF
:1051500087510000875100008751000087510000EF
:10516000875100007151000087510000715100000B
:1051700003980121490700F0E9F805E003980021B0
:1051800000F0E4F800E0FFE703980299098A0022A2
:10519000009200F0ADF8009B03980299C9681A4686
:1051A00000F04EF802990878097A08430399794A81
:1051B000885004B080BDC04681B000900099B54AC7
:1051C000B548885001B0704782B0019000910098B6
:1051D000019911221202885002B0704780B584B044
:1051E0000390029101A802700399224A8918009144
:1051F00001780098890040180090009802990722D1
:105200009204FFF7C1F804B080BDC04680B584B0F9
:105210000390029101A802700399074A891800912E
:105220000178009889004018009000980299034A7C
:10523000FFF7AAF804B080BD70180000DBB6C1FF0C
:1052400010B586B005900491039202A803700599E9
:10525000084A891801910178019889004018019045
:1052600001980499039A1143034AFFF78DF806B099
:1052700010BDC046301800007777020010B586B028
:1052800005900491039202A8037005993122D2017E
:1052900089180191017801988900401801900198BE
:1052A0000499039A11438F22FFF76EF806B010BDE0
:1052B00010B587B0009104460098099906940590AE
:1052C0000492039302A801700699084A8918019173
:1052D00001780198890040180190059804990843C5
:1052E000039908430199086007B010BD50180000E9
:1052F00084B00390029101A802700399064A8918AC
:105300000091017800988900401800900298009957
:10531000086004B07047C0461018000082B00190C9
:105320000091009800780199774A88500098407859
:105330000199012212038850009880780199024A4D
:10534000885002B07047C0460C11000080B582B092
:105350000190009101980F4940180099032212070B
:10536000FFF712F802B080BD82B001900091009862
:105370000199024A885002B07047C04608180000E0
:1053800081B000900099034A88580123184388503F
:1053900001B070470418000082B00190009100989D
:1053A0000199024A885002B07047C0464810000078
:1053B00081B000900099112002028858012398437F
:1053C000885001B0704781B000900099112002020E
:1053D000885801231843885001B0704782B001906B
:1053E0000091009B0199034A88581843885002B0E5
:1053F0007047C0462810000081B00090009901203D
:10540000C2020248885001B07047C0460100002621
:1054100082B00190009101980249405800990840DB
:1054200002B070473810000080B582B00190009142
:105430000198FFF7BDFF0198112109024018009A59
:1054400011889378194392881143084AFEF7B0FFF8
:10545000019824494018009A9179D3791943127A16
:1054600011437E22FEF7A4FF02B080BD1867020040
:1054700081B00090009802494058C0B201B0704716
:105480002411000081B000900099024A024888501F
:1054900001B0704704080000030000B180B584B07B
:1054A00003900291019203980B49401802990B4A0C
:1054B000FEF7A6FF03980A49401801993F22FEF71C
:1054C0009FFF0399074A8818895801221140FEF767
:1054D00097FF04B080BDC04610110000FFFF000020
:1054E000141100000411000082B001900091009896
:1054F00000780199044A8850009840780199012267
:105500001203885002B070470810000080B582B0C6
:10551000019000910198112109024018009903227D
:10552000D203FEF76DFF02B080BD80B582B001905E
:10553000019804F020FF02B080BD80B582B0012048
:10554000019003F0A3FA019803F0DEFA02B080BDE7
:1055500080B590B00F900F98614909F00BFE7D2146
:10556000C90509F043FD0C900C98FBF7DBF9089096
:105570000C98002108F067FB002804D1FFE7089889
:10558000401E0890FFE70C9800900898FBF72CFA53
:105590000146009809F052FE0C900C9811218906E2
:1055A00009F0E8FD07900798FBF7BCF90146E648CB
:1055B00001400BA802900180079901910088FBF738
:1055C0001BFA0146019809F039FE014602980D9137
:1055D00001888A00DD498A580A92008880004018B4
:1055E000406809900D9903917F20C00509F026FEBF
:1055F0000146039805910A990491099909F0BAFDA9
:10560000049902460598069209F0B4FD069909F03E
:10561000EDFC0E900E9810B080BDC04680B590B0E5
:105620000F900F98C74909F0A5FD0C900C98FBF757
:1056300079F908900F98002108F005FB002804D1A3
:10564000FFE70898401E0890FFE70C980090089824
:10565000FBF7CAF90146009809F0F0FD0C900C9890
:105660001121890609F086FD07900798FBF75AF982
:105670000146B54801400BA80290018007990191AD
:105680000088FBF7B9F90146019809F0D7FD0146FA
:1056900002980D9101888A00AC498A580A920088C4
:1056A00080004018406809900D9903917F20C00543
:1056B00009F0C4FD0146039805910A9904910999DE
:1056C00009F058FD049902460598069209F052FD2A
:1056D000069909F08BFC0E900E9810B080BDC04664
:1056E00083F9223E10B5B0B02F902E912D922F98B5
:1056F000944909F03FFD2B902B98FBF713F9249068
:105700002B98002108F09FFA002804D1FFE7249885
:10571000401E2490FFE72B9800902498FBF764F933
:105720000146009809F08AFD2B902B9811218906DB
:1057300009F020FD23902398FBF7F4F80146824AF4
:1057400011402AA80F9001802A998031114029AA7E
:1057500011921180239901910088FBF74DF90146C0
:10576000019809F06BFD119902460F982C920A8856
:105770009300764A1092D358289309888900891893
:10578000496827910188890053580121C9074B4076
:1057900026930088800080184068484025906C4817
:1057A00022902798289909F049FD2190229803908A
:1057B0002698259909F01AFC02902199084609F0CB
:1057C00015FC029902460398049209F0D3FC04994F
:1057D00009F034FD20902C98099020980890219889
:1057E0000690259805902699084609F0FFFB059933
:1057F00009F0FCFB229909F0BDFC014606980791CF
:105800005449169109F0B6FC079909F017FD08995B
:10581000024609980A9209F0ADFC0A9909F0E6FBE4
:1058200020902C980C9020980B902698229909F0A3
:10583000A1FC0B9902460C980D9209F09BFC0D9966
:1058400009F0D4FB20902C982099289A0E9209F008
:1058500091FC0E9909F0CAFB0F9A10990346119812
:105860002D9C236013889B00CB58289312889200AC
:10587000521852682792028892008A58269200880D
:1058800080004018406825902798289909F0D6FC98
:105890002190229813902698259909F0A7FB129041
:1058A0002199084609F0A2FB129902461398149216
:1058B00009F060FC149909F0C1FC20902C981A9012
:1058C00020981990219817902598159026990846A8
:1058D00009F08CFB159909F089FB229909F04AFC23
:1058E000169902461798189209F044FC189909F085
:1058F000A5FC199902461A981B9209F03BFC1B99CA
:1059000009F074FB20902C981D9020981C902698EC
:10591000229909F02FFC1C9902461D981E9209F04D
:1059200029FC1E9909F062FB20902C982099289A56
:105930001F9209F01FFC1F9909F058FB2E9908606F
:1059400030B010BD83F9223EFF01000034FA0000A0
:10595000DB0F493C0000404080B59CB013901B9188
:105960001B980169084609F005FC1A901B99086903
:10597000496909F0FFFB19901B990869896909F0C9
:10598000F9FB18901B990869C96909F0F3FB179096
:105990001B994869896909F0EDFB16901B994869C4
:1059A000C96909F0E7FB15901B998869C96909F075
:1059B000E1FB14901A983F2109060F9109F03EFC73
:1059C00000901B9804904169084609F0D3FB0099A8
:1059D00009F00CFB014604980291006A01901698A8
:1059E000179909F02BFC0499496A09F0C3FB019946
:1059F00002460298039209F0BDFB039909F0F6FAFA
:105A000005901598189909F0F1FA0499896A09F036
:105A1000B1FB059909F0EAFA0146084609F0E6FAF1
:105A2000139908601698179909F0E0FA0F990890F1
:105A30001B980A90006A07901A9809F0FFFB01462C
:105A40000A9806918169084609F094FB069909F0C5
:105A5000CDFA0A99496A09F08DFB07990246089820
:105A6000099209F087FB099909F0C0FA0B90149884
:105A7000199909F0E3FB0A99896A09F07BFB0B99F4
:105A800009F0B4FA0146084609F0B0FA13994860E3
:105A90001598189909F0D2FB0D901B981190006A87
:105AA0000C901498199909F0A1FA1199496A09F012
:105AB00061FB0C9902460D980E9209F05BFB0E9962
:105AC00009F094FA0F9912901A9809F0B7FB014661
:105AD00011981091C169084609F04CFB109909F022
